{
  "_format": "hh-sol-artifact-1",
  "contractName": "IdleQuest",
  "sourceName": "contracts/IdleQuest.sol",
  "abi": [
    {
      "inputs": [],
      "stateMutability": "nonpayable",
      "type": "constructor"
    },
    {
      "inputs": [
        {
          "internalType": "address",
          "name": "owner",
          "type": "address"
        }
      ],
      "name": "OwnableInvalidOwner",
      "type": "error"
    },
    {
      "inputs": [
        {
          "internalType": "address",
          "name": "account",
          "type": "address"
        }
      ],
      "name": "OwnableUnauthorizedAccount",
      "type": "error"
    },
    {
      "anonymous": false,
      "inputs": [
        {
          "indexed": true,
          "internalType": "address",
          "name": "previousOwner",
          "type": "address"
        },
        {
          "indexed": true,
          "internalType": "address",
          "name": "newOwner",
          "type": "address"
        }
      ],
      "name": "OwnershipTransferred",
      "type": "event"
    },
    {
      "anonymous": false,
      "inputs": [
        {
          "indexed": true,
          "internalType": "address",
          "name": "player",
          "type": "address"
        },
        {
          "indexed": false,
          "internalType": "uint256",
          "name": "points",
          "type": "uint256"
        }
      ],
      "name": "QuestPointsAdded",
      "type": "event"
    },
    {
      "inputs": [
        {
          "internalType": "address",
          "name": "_addr",
          "type": "address"
        }
      ],
      "name": "get",
      "outputs": [
        {
          "internalType": "uint256",
          "name": "",
          "type": "uint256"
        }
      ],
      "stateMutability": "view",
      "type": "function"
    },
    {
      "inputs": [],
      "name": "owner",
      "outputs": [
        {
          "internalType": "address",
          "name": "",
          "type": "address"
        }
      ],
      "stateMutability": "view",
      "type": "function"
    },
    {
      "inputs": [
        {
          "internalType": "address",
          "name": "",
          "type": "address"
        }
      ],
      "name": "questPoints",
      "outputs": [
        {
          "internalType": "uint256",
          "name": "",
          "type": "uint256"
        }
      ],
      "stateMutability": "view",
      "type": "function"
    },
    {
      "inputs": [],
      "name": "renounceOwnership",
      "outputs": [],
      "stateMutability": "nonpayable",
      "type": "function"
    },
    {
      "inputs": [
        {
          "internalType": "address",
          "name": "_addr",
          "type": "address"
        },
        {
          "internalType": "uint256",
          "name": "_points",
          "type": "uint256"
        }
      ],
      "name": "set",
      "outputs": [],
      "stateMutability": "nonpayable",
      "type": "function"
    },
    {
      "inputs": [
        {
          "internalType": "address",
          "name": "newOwner",
          "type": "address"
        }
      ],
      "name": "transferOwnership",
      "outputs": [],
      "stateMutability": "nonpayable",
      "type": "function"
    }
  ],
  "bytecode": "0x608060405234801561001057600080fd5b5033600073ffffffffffffffffffffffffffffffffffffffff168173ffffffffffffffffffffffffffffffffffffffff16036100845760006040517f1e4fbdf700000000000000000000000000000000000000000000000000000000815260040161007b919061019e565b60405180910390fd5b6100938161009960201b60201c565b506101b9565b60008060009054906101000a900473ffffffffffffffffffffffffffffffffffffffff169050816000806101000a81548173ffffffffffffffffffffffffffffffffffffffff021916908373ffffffffffffffffffffffffffffffffffffffff1602179055508173ffffffffffffffffffffffffffffffffffffffff168173ffffffffffffffffffffffffffffffffffffffff167f8be0079c531659141344cd1fd0a4f28419497f9722a3daafe3b4186f6b6457e060405160405180910390a35050565b600073ffffffffffffffffffffffffffffffffffffffff82169050919050565b60006101888261015d565b9050919050565b6101988161017d565b82525050565b60006020820190506101b3600083018461018f565b92915050565b610680806101c86000396000f3fe608060405234801561001057600080fd5b50600436106100625760003560e01c8063136aafd5146100675780633825d82814610097578063715018a6146100b35780638da5cb5b146100bd578063c2bc2efc146100db578063f2fde38b1461010b575b600080fd5b610081600480360381019061007c91906104f0565b610127565b60405161008e9190610536565b60405180910390f35b6100b160048036038101906100ac919061057d565b61013f565b005b6100bb61022e565b005b6100c5610242565b6040516100d291906105cc565b60405180910390f35b6100f560048036038101906100f091906104f0565b61026b565b6040516101029190610536565b60405180910390f35b610125600480360381019061012091906104f0565b6102b4565b005b60016020528060005260406000206000915090505481565b61014761033a565b80600160008473ffffffffffffffffffffffffffffffffffffffff1673ffffffffffffffffffffffffffffffffffffffff16815260200190815260200160002060008282546101969190610616565b925050819055508173ffffffffffffffffffffffffffffffffffffffff167f1c5bd647770637415b974e9a38448205066b6fd36c0e6b0570dd677f0f58b5b4600160008573ffffffffffffffffffffffffffffffffffffffff1673ffffffffffffffffffffffffffffffffffffffff168152602001908152602001600020546040516102229190610536565b60405180910390a25050565b61023661033a565b61024060006103c1565b565b60008060009054906101000a900473ffffffffffffffffffffffffffffffffffffffff16905090565b6000600160008373ffffffffffffffffffffffffffffffffffffffff1673ffffffffffffffffffffffffffffffffffffffff168152602001908152602001600020549050919050565b6102bc61033a565b600073ffffffffffffffffffffffffffffffffffffffff168173ffffffffffffffffffffffffffffffffffffffff160361032e5760006040517f1e4fbdf700000000000000000000000000000000000000000000000000000000815260040161032591906105cc565b60405180910390fd5b610337816103c1565b50565b610342610485565b73ffffffffffffffffffffffffffffffffffffffff16610360610242565b73ffffffffffffffffffffffffffffffffffffffff16146103bf57610383610485565b6040517f118cdaa70000000000000000000000000000000000000000000000000000000081526004016103b691906105cc565b60405180910390fd5b565b60008060009054906101000a900473ffffffffffffffffffffffffffffffffffffffff169050816000806101000a81548173ffffffffffffffffffffffffffffffffffffffff021916908373ffffffffffffffffffffffffffffffffffffffff1602179055508173ffffffffffffffffffffffffffffffffffffffff168173ffffffffffffffffffffffffffffffffffffffff167f8be0079c531659141344cd1fd0a4f28419497f9722a3daafe3b4186f6b6457e060405160405180910390a35050565b600033905090565b600080fd5b600073ffffffffffffffffffffffffffffffffffffffff82169050919050565b60006104bd82610492565b9050919050565b6104cd816104b2565b81146104d857600080fd5b50565b6000813590506104ea816104c4565b92915050565b6000602082840312156105065761050561048d565b5b6000610514848285016104db565b91505092915050565b6000819050919050565b6105308161051d565b82525050565b600060208201905061054b6000830184610527565b92915050565b61055a8161051d565b811461056557600080fd5b50565b60008135905061057781610551565b92915050565b600080604083850312156105945761059361048d565b5b60006105a2858286016104db565b92505060206105b385828601610568565b9150509250929050565b6105c6816104b2565b82525050565b60006020820190506105e160008301846105bd565b92915050565b7f4e487b7100000000000000000000000000000000000000000000000000000000600052601160045260246000fd5b60006106218261051d565b915061062c8361051d565b9250828201905080821115610644576106436105e7565b5b9291505056fea26469706673582212209cb03644e824fb7e1b436690390023c89a4c33d0691ecc1553d590765f283a4564736f6c634300081c0033",
  "linkReferences": {},
  "deployedLinkReferences": {}
}